:100000000C9446000C9465000C9465000C946500FB
:100010000C9465000C9465000C9465000C946500CC
:100020000C9465000C9465000C9465000C946500BC
:100030000C9465000C9465000C9465000C946500AC
:100040000C9465000C9465000C9465000C9465009C
:100050000C9465000C9465000C9465000C9465008C
:100060000C9465000C9465000C9465000C9465007C
:100070000C9465000C9465000C9465000C9465006C
:100080000C9465000C9465000C94650011241FBE4F
:10009000CFEFD0E4DEBFCDBF11E0A0E0B1E0EEE6EF
:1000A000F2E000E00BBF02C007900D92AE30B10746
:1000B000D9F711E0AEE0B1E001C01D92A031B10767
:1000C000E1F70E9490000C9435010C940000CF934E
:1000D000DF9300D01F92CDB7DEB789837B836A831D
:1000E00089818A3031F48A819B81BC018DE00E9434
:1000F000670080EC90E0FC018081882F90E08072A6
:1001000099270097B1F386EC90E02981FC012083C8
:1001100080E090E00F900F900F90DF91CF910895C5
:10012000CF93DF9300D000D0CDB7DEB781E290E06F
:10013000FC01108282E290E02FEFFC01208384E238
:1001400090E02FEFFC01208385E290E0FC0110821B
:100150001C8219821A8281E08B8310920F01109207
:100160000E0180E290E0FC018081882F90E0817098
:10017000992721E0009709F020E02C8380910E015F
:1001800090910F018130910571F08130910520F03F
:1001900082309105D9F02CC081E090E090930F015E
:1001A00080930E012CC081E08B838C81813039F4E7
:1001B00082E090E090930F0180930E0120C081E0D7
:1001C00090E090930F0180930E0119C01B828C81E7
:1001D000882339F481E090E090930F0180930E0121
:1001E0000EC082E090E090930F0180930E0107C053
:1001F00081E090E090930F0180930E0100008091C8
:100200000E0190910F018130910531F181309105FE
:1002100028F18230910519F58B818823E1F08A81DC
:10022000882359F48981880F8F5F8983898180357C
:1002300090F0198281E08A8312C08981882319F4A1
:100240008FE4898308C08981869589838981882381
:1002500011F41A8204C003C0000001C0000085E24E
:0E02600090E02981FC0120837CCFF894FFCF31
:0E026E00000000020000000067000000000019
:00000001FF
